:400000000010002011000000A1100000A110000008B501F04FFA01F04BF80000F8B572B60026564A564B20271A60564B564A1E6001231360554A56491760564A08251160AC
:400040002821554A554C1160554A56491560564A1820156004220A6054490A605449DC320A6054490A60544A13601133236001F03DF98022514B52001A608023BE205049B0
:40008000DB0519604F49C00108604F490B2019604E490A60B8214E4A49011A604D4A1160FE214D4A09021A604C4A116090214C4A49011A604B4A11604B4A4C491A6045224E
:4000C0004B4B1F604B4B1A604B4B033A1A604B4B02321A604A4B033A1A604A4B02321A6001F04EF80B2001F06BF8474A474B301C1A600522464B1A6001F0E4F9454B1A1C56
:400100001D60082311680B40FBD10120414A4249106011222260802212060A603F4C40490C604049404C0A6040490C608024404964040A603F490C6080243F49A4040C60E0
:400140003E4C3F490C6080243E49A4020C603E490A603E493E4A1160E0213E4A11603E4ADD3911603D493E4A1160F1213D4A11603D4A136000F0E4FFF8BDC046EE009900B2
:400180000000024004013F400020004000000440361003000800044018000440300010400001044000020440180104401802044000030440180304401805044000030040D4
:4001C00040FF00801403004045FF00800803004042FF00801003004044FF00800403004041FF00800C03004043FF00806915000028000340380100403001004010010040C7
:400200000C010040040100403F9C0000080206400C020640100206400000304000020800800030400000314080000800880031400000384010003840180038400000010167
:4002400048013840C001384000003A40A060000000033A4040033A4008013F400100008000023F4004023F40000E3F4010B5064C2378002B07D1054B002B02D0044800E006
:4002800000BF0123237010BDE0010020000000005840000008B5084B002B03D00748084900E000BF07480368002B00D108BD064B002BFBD09847F9E70000000058400000FC
:4002C000E4010020B000002000000000F8B54604760F0A23321C5A43060545066D0F360F96192A1C0F258102890F5A434B430540802755191A1C01033F040B0F041C0740B7
:40030000D118104800F0BCFC092E02D8302001F0C1F90D48311C00F0B3FC092D02D8302001F0B8F90948291C00F0AAFC002F05D00748630200D5074801F080FA064801F0D3
:400340007DFAF8BD67400000774000007B4000007E400000824000008E410000F0B50C208FB000F02DFF62B6002701F05DF9C94801F064FA00F072FB00F000FD01F0E4FEBA
:4003800002F0DEF801F0C6FDC34801F057FA0497039702F0A7F800282ED101F0F9FE02F007F8002821D0039B002B23D1AF2301371B019F4206D900F0EDFC00F037FE0123D0
:4003C000039317E0FA239B009F4213D9049B002B10D10AA801F094FE0D9B0A980B990C9A00F0BEFD0123049304E0002F02D0071C0490039002F0A4F801F00CFAA74BC0B2F9
:400400001870542834D00DD845283ED005D80D2800D11CE1442816D0BBE748280FD04D285BD0B6E768280AD004D864280BD065282BD0AEE76D2850D0742819D0A9E7984880
:4004400001F0FCF903E10AA801F05AFE0A98FFF73DFF00F09FFC6421041C03F07FFA642201B252424A438F48A21800F009FCEEE00AA801F045FE0A98FFF728FF0A980B99AE
:400480000C9A0D9B00F06CFDE1E00AA801F038FE0A9C0B9B2002A5020793AD0FC30F05930A222B1C534325032D0F5D1963045B0F5A4323051B0F6402D318E40F09A87A49CB
:4004C00003220093029403F0B5FD0C230693059B002B14D11723069311E000F05BFC6421041C03F03BFA642201B252424A436D48A21800F0C5FB201C00F098FDA7E0502385
:400500000193002C01D1412301936848291C00F0B7FB002401F07EF9604BC0B218700D2820D1634801F08AF9002C00D196E009AA012C02D11378303B07E05378303B191CB6
:4005400013780A22303B5343CB18069ADBB29A4201D31D1C82E0574801F070F95648291C09AA12E07F2813D1002C11D0202309AE013CE4B25148291C321C335500F080FB63
:400580000023291C321C4D48335500F079FBC1E7031C303B092BBDD8012CBBD8661C09AA1055F6B24548291C00F06AFB341CB1E7404801F043F94248009909AA00F060FB22
:4005C00001F028F9354BC0B218700D2800D081E0374801F033F9002C49D1059B002B00D1CFE0002409AB374801991C705C7000F047FB01F00FF9294BC0B218700D2800D0F5
:4006000099E02B4801F01AF9002C00D088E00A21281C03F013F90A210405281C03F094F9059B0904D8050C4304430A21009803F005F9000304430A21009803F085F9029B11
:4006400009020C4398052043079901F017FC1E4801F0F4F81D4801F0F1F89AE6002409AB1B4800991C705C7000F00AFBA8E709AA012C02D11378303B07E05378303B191CCF
:4006800013780A22303B5343CB18DBB23B2B8FD80093A2E786400000A5400000FC010020AF400000F440000064400000194100008E4100002541000036410000354100001E
:4006C00045410000554100007041000087410000914100007F2811D1002C0FD0202309AE013CE4B22C480099321C335500F0C8FA0023294833550099321C5FE7031C303BCA
:40070000092B00D95CE7012C00D959E7661C09AA1055F6B22048009900F0B2FA341C4FE7202209AB1B789343412B30D0502B00D06DE74F3B29E07F2812D1002C00D158E7FB
:400740002023002409AE0199321C1448337000F097FA12480199321C347000F091FA48E72023021C9A43412A02D0502A00D040E7002C0ED109AA10700199084800F080FAE5
:4007800007E00C20A8428041434202933FE70023FBE701242DE7C0464441000061410000020100091043C2B23321131C8A430B4092109B001343181C5522104093435B1093
:4007C0004000184370470000F0B5764B93B01978002910D05A788A4201D2013200E000225A705A780021282A14D86F4989565A885143090A0DE001216C4C228850080A4090
:4008000001D0B8221202424022805988D20701D4494289B204201A5E0092DA8801920822985E0A241A5F4243D211881A6A460421525E00994A43D211821A0C20195E92B27B
:400840000291D989039169460C20095E02984143C911511A89B204911020195E12B20591598A069169461820095E059841430498C911411A89B207911420195E0891D98A45
:40088000099169462420095E089841430798C911411A89B20A911820195E0B91598B1E8D0C9169463020095E0B985D6A41430A98C911411A89B20D911C20195E1F8E0E91FC
:4008C000D98B0F9169463C20095E0E9841430D98C911411A89B210912021585E10991190588C844604B211984443E4110C1B30B2D96A68433DB24D430099A4B24A4301994C
:40090000D21152185A816A461021525E0299C0134A430399D2115218DA806A461C21525E0599201A4A430699D2115218DA816A462821525E089924B24A430999D2115218DB
:400940005A826A463421525E0B9980B24A430C99D2115218DA8240216A4652181288ED1311B20E9A451B51430F9AC9118918119A00B254435A6AADB25043C0138019DE6A3F
:40098000588428B24643E411F6136444F61900015983DC831E851D8600F0F2FF00B213B0F0BDC04600020020A0410000B4000020F8B50F4D0F4A2B780F4E9B00D318DB6AB4
:4009C0000E4C3360002323702378132B0AD8277833687F00DF19FFF7F7FE388023780133DBB2F0E701222B7853402B70F8BDC04605030020A0410000000300200403002010
:400A0000154BF7B5191C1D1C1A1C34310C7832352E7833321778240234430191BC401021A4B2091A0C41C019C0B2E4B2072801D810700FE008381070019A16701A1C353224
:400A40001278002A06D19A6B511C90789963FFF7A7FE2870201CFEBD0002002038B500F0C1FF00F02FFF104800F056FF0F49002000F0DEFC0E4C0F4D221C00203C320121EB
:400A800000F000FD2A1C0020012100F003FD0020012100F0EBFC201C291C643000F0F0FE002000F0D9FC38BDC4090000B1090000000200200C033440F7B56B4C0025231CF8
:400AC00033331D70231C061C3533A06300781D70FFF766FE231C343318707078FFF760FE231C3233187000F03DFF0420FFF788FF061E01D16080B1E00F280ED100236380F2
:400B0000E36263622384A3832383A3822382A381A38023819D4266D097E00120FFF770FF524F01903B1C34339B5D06206380FFF767FF44373B5C00936B461B782370019B0C
:400B4000002B00D08AE00520FFF75AFF484F400038180422835E0520E362FFF751FF0637400038183E22835E04206362FFF748FF0423404F3818C35604202384FFF740FF6B
:400B800014233818C356A383009B002B00D165E00420FFF735FF7B1D18181F23C35604202383FFF72DFF3B1C34331B560420A382FFF726FF3B1C44331B5603202382FFF7A6
:400BC0001FFF3B1C54331B560320A381FFF718FF3B1C5C331B560320A380FFF711FF64373B5623813AE00023234A1370234A151C13702B78132B0CD82F78FFF7E5FD231CF0
:400C0000FFB264337F00F8522B780133DBB22B70EFE7002000F014FC0023184A13702B78132B0BD82F78FFF7CFFD2B78FFB27F000133E719DBB2B8872B70F0E7172000F00D
:400C4000DDFA0F2E04D001254FE7172000F0D6FA002000F001FC00F051FEF7BD002DC2D0172000F0CBFAEEE700020020A041000020420000A0420000050300200403002023
:400C80000FB4F0B5012587B00C9C207800286ED0661C252803D000F0FDFC0C96F4E763780C96732B0BD16E1C0CABAD005D192D682878002855D000F0EDFC0135F8E7642B67
:400CC00022D100266B1C0193AD000CAB5D192F6803AB381C0A21751C9E1902F035FE381C31700A2102F0AAFD2E1C071EF0D1013D03AB5B5D204AD05C00F0CCFC002DF6D1E6
:400D000002340C94019DBFE7632B08D16E1C0CABAD005D192868C0B200F0BCFC21E0782B23D10CAB6E1CAD005D1900232A680F215D1C114003AFF95412092B1C002AF6D127
:400D4000E90702D50135FA5403E0012D01D102257A70013D7B5D084AD05C00F09BFC002DF7D102340C94351C8EE7002E8CD107B0F0BC08BC04B018470C43000008B502F0C5
:400D800001FB02F02FFA02F0ABF902F077F902F06DF908BD38B5012002F036FA114C00281DD0002002F04AFA051C012002F046FA0023E25E1F235A43AA180225615F520955
:400DC0004B43C118490992B289B2618010B209B2228002F0E3F800B202F0F6F8A0800423E05E38BD8C02002038B5041E05DA4B48FFF762FE604200B23CE0002802D1484862
:400E00004A3084E0132838DD0A2102F0A7FD00B20238072826D802F007FD04070E1114171A1D404812301BE03F4D281C0F30FFF743FE281C13E03D4819300DE03C4809306E
:400E40000AE03B485F3007E03A483C3004E03A48483001E039483630FFF72EFE32487130FFF72AFE201C0A2102F05EFE89B200294FD008B2FFF7B8FF4BE0023811280AD881
:400E800002F0D2FC0C0F1215181B1E2124272A2D303336393C3F2A48343038E029482B3035E02948113032E0204819302FE0264877302CE01E485F3029E01E483C3026E085
:400EC0001D48483023E01D48363020E01F485E301DE01F4843301AE01E48023017E012480F3010E0114819300DE0114809300AE00F485F3007E00F483C3004E00E4848301C
:400F000001E00E483630FFF7D7FD13480830FFF7D3FD12482030FFF7CFFD38BD1C4300009C4300009C4400001C4500009C4500001C4600009C4600001C4700009C470000A6
:400F40001C4800009C4800001C4900009C4900001C4A00001C4B00009C4B00001C4C0000F0B58502AD0F0A222B1C534305032D0F5D1943045B0F5A4303051B0F87B0D31876
:400F800000938023224F1B040340041C381C26300193FFF791FD381C6930FFF78DFD1D4EF01DFFF789FD381C2030FFF785FD28B2FFF71AFF012D02D1301C593001E01648CB
:400FC0005730FFF779FD381C2030FFF775FD6B460020185EFFF708FF009B012B02D10F48583001E00E486230FFF766FD381C2030FFF762FD019B002B08D0630202D40948EF
:40100000263001E008487330FFF756FD07B0F0BD1C4C00001C4D00009C4D00001C4E00009C4E00009C4F00001C50000010B5041C15482630FFF740FD14485C30FFF73CFD92
:4010400013480730FFF738FD6421201C02F086FC00B2FFF7C9FE0F481030FFF72DFD201C642102F061FD08B20A2102F077FC00B2FFF7BAFE08483230FFF71EFD07487C30DF
:40108000FFF71AFD10BDC0461C4C00001C5100001C4D00001C5200009C5200001C53000008B502F09BFF03680C2B00D1FEE7FEE770B51049104B01394A1C15D000221E68BB
:4010C0005C689D68A018AA4203D0B058A0500432F8E7021CDC68151AA54202D0002520C2F9E710330139E7E702F07EFFFFF736F9FEE7C04601000000446F000008B5002314
:401100009A000A49032B01D809498958094801338150292BF4D1FEF781FF0022064B1A608022064B92051A6008BDC046A11000000000000000000020A800002008ED00E07A
:40114000054A1368002803D0802109060B4301E05B005B081360704780033A40024A034B11680B401360704700000640FFFFFFBF024B18684000C00F7047C046000006407D
:40118000024B8000C3181868196070474000002038B5041C0D1C02F024F9A308074A9B009B180322144094400634A240A540196891432943196002F018F938BD00E400E0A4
:4011C0001F2318401E3B8340181C014B1860704700E100E01F2318401E3B8340181C014B1860704780E100E01F2318401E3B8340181C014B1860704780E200E010B5041C97
:401200008022074B1202944205D9586802F0E0F8044BE418F4E79868604302F0D9F810BDB80000200080FFFF37B500F03DF9002847D002F0D6F8234A234B041C1B681168B1
:40124000072213409B0018331A1C0B079B0FDA401E48131C01681E4A114080220D1C1D49D20159438918C90B4A1E2A43111C192B02D8194A131C0EE0184D194A9A18EB1817
:401280001A3B1D78A02312785B031943AB18FF2B00D9FF239B050B43124D03602B683020019302F0A5F880210F4AC905136814200B431360FFF7A2FF019B201C2B6002F07B
:4012C00094F837BD28000340080F03400800064000F800C040420F000000D43F74540000CDF1FF0F3000104000000640F7B50423021C9A43182A06D00C23021C9A43202A4B
:4013000001D0302842D1041C02F06BF800270190FFF72EFFB84202D0FFF720FF013707267F201B4D1B4A2B681B49B3432B601B4BE3181B78DBB21360194A1368B3431360BC
:40134000184A0B68A21812788343024013430B604D3802F03DF8182C11D9231C2A681C3B9B08B2433340134332202B6002F030F8183C2868A4083440B04304432C60012F37
:4013800001D1FFF751FF019802F02FF8F7BDC046080F03400C0F0340180F0340CDF1FF0F100F0340B4F1FF0F08B5034B1B7B584302F00EF808BDC046B800002038B50025BD
:4013C000074B1C68074B1C60002C07D0E30702D5054BEB58984764080435F5E738BDC046FC171040F0171040CC000020704708B5011C0C20FFF7C4FE08BD000010B5094C9D
:401400002378002B08D10848FFF7F1FF0C200321FFF7BEFE012323708022044B12061A6010BDC04692020020BD13000000101040024A8300985899507047C046CC00002093
:401440008022044B8000C01803681206134303607047C04680101040034B8000C01803685B005B08036070478010104040004118034B0901C91880231B064B607047C04683
:401480000818104040004118014B0901CA5070470018104040004118024B0901C9184A607047C04600181040014B1868C00F704700000640014A024B1A6070476588EDAC0D
:4014C0003800034070B5154E041C3368144D9B0F9B07834215D003222B687C2093432B6033689B0F00D09030FFF75EFF01F079FF3368A40F9B00A4079B081C43346001F076
:4015000074FF03222B689343191C33689A0F5342534101330B432B6070BDC0460C0206401402064010B5041C01F05BFF0549064A0B681440054A134023430B600B6801F0AC
:4015400054FF10BD1002064004040400FBFBFBFF0022022804D8034B80001B189A689960101C704794020020042238B5224C2368134213D021490B6813420CD0204B5D69B7
:4015800008681540A84308605969914359619B68002B00D098470420FFF7C4FF80232268DB001A4215D015490A681A420DD0144A556908682B40984308605169114B0B401C
:4015C0005361D368002B00D098478020C000FFF7A9FF80232268DB021A420CD0074A12681A4204D0064B1B69002B00D098478020C002FFF797FF38BD10020640F0000020ED
:4016000094020020FFFBFFFF8021064A08B5136809060B4313600920FFF7D2FD00F0E4F808BDC0460000084010B5054C2378002B03D100F067F801232370FFF7E5FF10BDD9
:40164000AC020020094B0A491A680B6800209A420AD00B685A1C803B581E83415B421A40044B985C0A60C0B27047C046180400201003002094030020044B1868044B1A68B3
:401680001B68904200D28130C01A7047180400201003002030B5144A144C11682368994208D1134B19681F230B40082B02D0114B186017E01368591C7F3B5D1EAB415B420D
:4016C000194023689942FCD002240B4BC0B21C600A4B58540A4B11601A68224202D11A6822431A6030BDC0460C030020080300200802084040020840800F084014030020DD
:40170000880F084038B51F4A00241F4B07201A60012204251D4B1E491C601E4B1A601E4B0B601E4908601E4902300C601D490A601D4A13601D4B1C601D4B1D60FFF74AFD73
:4017400009200321FFF724FD1A490920FFF718FD194B1C60194B1C60194B1C60194B1C60194B1D60194B1C601A68194B1A80194B1C60194B1C60194B1C70194B1C60194BB9
:401780001C6038BD0A000002000008404000084000030840480008400700008004030840100308404400084000020840040208405000084051340000880E0840C80E084093
:4017C000480F0840080F0840C80F0840880F0840B40200201804002010030020150400200C03002008030020064A074B11680B40902109040B431360044B1A88044B1A6076
:401800007047C04600000240FFFF0FFFB4020020880F084008B5FFF72FFF031C0020834201D0FFF70FFFD822034B92001968114201D000201A6008BDC00F084010B5041C54
:401840000134631E1878002802D0FFF723FFF7E710BD000080220121054B92051A60054B054A9A609A61054A13680B4313607047801010400018104013009128F8171040F7
:4018800070B50F4C061C23780D1C002B03D1FFF7E1FF01232370FFF7B1FD0020321C011CFFF7F0FD00202A1C011CFFF7F3FD0020011CFFF7DBFD0020FFF7C2FD70BDC046A8
:4018C000B80200208022084B92041A600C22074B1A60074B0B3A1A60064B7C321A600022054B1A607047C046000101402401014038010140140101400801014008B501F06C
:4019000070FD0121034A13688B43136001F06DFD08BDC04600000140014B80B2186070471401014038B50D1C041CAC4001F059FD024B1C6001F059FD38BDC04608000140E8
:4019400010B5012401F04DFD054A13682343136001F04BFD201C1821FFF7E4FF10BDC0460000014010B5054C2378002B03D1FFF7A9FF01232370FFF7E3FF10BDB90200207F
:40198000044B984200DA181C034B984200DD181C7047C04600F0FFFFFF0F000008B50A4800F044F8072000F06FF80848092100F087F80921064800F083F8072000F052F818
:4019C00000F002F908BDC046F4000020440004005400040008B5012000F068F800F00AF908BD000010B5054C2378012B03D0FFF7D5FF01232370FFF7EDFF10BDBA020020DB
:401A0000002310B58B4205D002684468013314600830F7E710BD00008021034A090613680B4313607047C0460000344010B5041CFFF7F2FFA17A2268084800F0ADF8A27A9F
:401A4000074B0021D018920052424032800000F0B1F8E17A6068FFF7D3FF10BD80033440E0000D10021CE02110B5054C054B2068C90212040A4003401A43226010BDC04681
:401A800000033440FFFFF8FF021CE02110B5054C054B2068C90312050A4003401A43226010BDC04600033440FFFF8FFF034AC00713685B005B0818431060704778033440CA
:401AC000F0B5442807D0542807D0642807D02C4BC4B2E41804E02B4C02E02B4C00E02B4CF8225203050202402368ED0F120C002D09D0032A0BD9161F032E0AD9083A032A28
:401B00000AD9234A09E00F269640F24305E0102200E0F122524200E01E4AF826760306401A40330C002D0CD0360C0023032E08D9371F0433032F04D9083E0433032E00D92D
:401B400004339940F8235B03002D0ED01840000C0F23032810D9051FE133032D0CD90838F023032807D91B0206E003400F201B0C9840031C00E01B010B4013432360F0BD1C
:401B800000033440440234405402344064023440FF0FFFFFFFF0FFFF30B50023102908D88B4206D05D009C00555B041925600133F6E730BD920892008218904202D0043AA2
:401BC0001160FAE77047000003238021054A09061360054A11600421044A1160044A13607047C046BC0200200000304004003040080F3040044A054B11681B680B43802150
:401C000009010B431360704704003040BC02002010B5041C830705D1642101F095FE0120002906D1C821201C490001F08DFE4842484110BDFA2183049B0F8900594310B561
:401C40000C1C64210F2203051B0F4B430240E3189A180A230006000F5843101810BDF7B50F1CFA21061C8900101C151C01F06CFE0C1C081C642101F067FE381C00910A2179
:401C800001F062FE381C0B040A21019301F0D6FD019B07050A21301C1F4301F0CFFD000707430A21301C01F04FFE09060F43FA21281C890001F0C2FD000307436421201CA2
:401CC00001F0BCFD000207430A21009801F03CFE00980F430A2101F0B1FD00013843FEBD70B50C1C151C022901D80C34013DC821AB082E184900281CF61801F09FFD642186
:401D00003618281C01F09AFD0623584335181A2001340A21604301F091FD0721281801F013FE002900D10731081C70BD0A4B30B51A68596852181A601A6899688A420AD342
:401D400001200021054A14685568001969411060516000221A6030BDC402002040040020F0B585B0041C0D1CFFF764FF00220023071C009201933B4EBE4210D2301CFFF72B
:401D800047FF002801D0384A00E0384A00230098019980185941013600900191ECE70A22E300DB0F5A43111C23011A0F8B185A1E2F495200565A022B05D9381CFFF728FF2C
:401DC000431E9841361800232A4803934643C0230296261C0A21F0229B031E40360D4E43120314402B40240C1B0D34194B4344432A402148120C9B18261800279C462B0237
:401E000006D56B0204D563460B2B01D80C239C446904490F0A220B1C3C2053432905090F5918484300230F216C06640F54430D40021C191C601980185941009C019D801981
:401E40007941E122664600196941029C039D1201564300196941341C1D1C0019694105B0F0BDC046B20700000085E2018033E1018C5400008051010080AEFEFFF7B58D0207
:401E8000AD0F0A222B1C53430D032D0F5D19CB00DB0F5A430B011B0F071CD318081C0C1C0193FFF7C7FE391C0090201CFFF758FF064B074E18605960009A281C0199376016
:401EC0007460FFF70DFFB060F7BDC0464004002024040020012208B5084B94201A700023074A0004D360074A0749D360074A1370074A1360FFF7C2FF08BDC0462004002048
:401F0000C40200202404002017200102380400203404002008B5054B1B78002B01D1FFF7D9FF00200249FFF713FB08BD200400202D1D0000064B10B51B18DC7D022805D1B6
:401F4000081CFFF765FE431E98412418201C10BD8C540000F0B5161C634A89B01F1C634B0690019200251C1CAF420DD0019B361BAF410133181C0193FFF74AFE002801D17A
:401F80005A4BEFE75A4BEDE79E42EFD80123594D0493002302950393574DBB420CD0029B039CF61AA741049B01990133181C0493FFF7C0FF4543ECE7029BB342EFD9301C36
:401FC000391C4D4A002301F0BBFD291C039B41431C1C8E425C4165420D402A1C039BB61A9F41E122431C0793301C0023391C120101F0A6FD0023E121041C02930E9B0901A1
:402000006143002B0ED0002F02D13C4B9E4205D9012302930C2C05D90C3C03E0002C01D102940C3400230A1CBB4207D11D1C96425D41181C694211400A1C031CB61A9F41EC
:402040003C220023301C391C01F07AFD3C210023414305900A1CBB4207D11D1C96425D41181C694211400A1C031CB61A9F410799019A0498FFF7F3FD069B0E9A5860029B13
:40208000D2059B051343201C0A211F1C01F0D6FB000507430A21201C01F056FC3C1C09040C4305980A2101F0C9FB000304430A21059801F049FC09020C43301C0A2101F0BB
:4020C00043FC301C0C430A2101F0B8FB069B000104431C6007980499019AFFF701FE069B986009B0F0BDC046B20700008033E1010085E20180DE280080510100C1A800008A
:4021000037B506490025CC680121054B1A685B68009112196B41FFF71DFF37BDC40200204004002010B5074C2378002B05D100F01DF900F043F90123237000F03FF800F0E8
:402140004BFB10BDD402002038B5FFF7EBFF041E17D100F0B3FA041E13D100F0F1F9041E0FD101F03EF9051C00F0BCF9002805D001F060F9281C01F038F9F2E7281C01F057
:4021800034F900F025F900F0A7F9201C38BD000038B5084B0024DB68DB0708D5064D281C00F04CF8291C041C002000F0BFF8201C38BDC04648040020C4540000012307B52B
:4021C00000210B4A5B42D3600A4B1161586811750190187E06280AD11A6900928A4206D0019A0098D179DA8A520001F02CFF07BD48040020C454000013B5131C041C42882D
:4022000068460280228A081C694601F099FA6B461B8863806B469B7823716B46DB7863716B461B79A37113BD4A880B889B1A0022CA800279934200DDCB807047F0B500255C
:40224000041C037E85B00293C36987684668039301950C236B43039AD3180093E38A9D4226D23888318A009A01F096FA301C00992A1CFFF7C1FF237E062B0CD1708827334A
:40228000FF335843642101F0D9FA0B4B6268984200D9181C5082391C029A301C00F0B8F8391C0190301CFFF7BFFF0A370135D0E7019805B0F0BDC046FFFF0000F7B5CA8A3F
:4022C0000B6952009A18019201228F684D6801998B4227D0F988144C8C466988224201D1698A0A37041CAE79144003D189198C4503D80DE0891B8C4503D9A24208D0141CB1
:4023000000E0002419780139C9B21970002906D1904320430121002C00D1E979197001335200D4E7FEBDC0465555555538B50E4C051C2318187D0B7E062B01D1FFF7BEFFBD
:402340001F220121631918756B0915400A1C04339B00AA40E158002802D191430A1C00E00A43E25038BDC0464804002010B50D4C0021201C402201F066FE0B4B201C2380EB
:40238000B0235B006380593BFF3BE3820749073B14221A30237601F04DFE20233734237010BDC0464804002028460000B0540000014B18697047C046480400200023024A9B
:4023C0009380024A1360704748040020E4020020F0B50A250C240D4F85B0FE8A7B687543744301930A3D0C3C002E0DD0BB68013E0293FB6903931A19029B585B019B0A3DEE
:40240000198A01F0BDF9EEE705B0F0BDC4540000F0B50B884C88A34205D24679E51AB5421DD8002603E000261D1B0E7201360779BD420ED8D2B2062A21D10A792402144368
:40244000FF2254431B02E3181A0A1B0C4B800A7115E04079854212D2002EEBD00FE00C7A007AA04202D901340C7208E0D2B20020062A02D04B80087201E00871FAE700202C
:40248000F0BDC9B2062901D1002303710388438000230372704700000A2208B5044B514340011B189A685018197EFFF7EAFF08BDC454000038B5041C064A4301D318DB8AD1
:4024C0005D1E002B05D0201C291CFFF7E5FF2B1CF6E738BDC454000008B50020FFF7EAFF08BD0000024B9868802318407047C04648040020094A031C916810B51120C903B6
:402500000AD41038002B07D1D268024204D01C1C181C00F0BFFB201C10BDC04648040020064B10B59C6880235B021C401120002C02D100F03BFB201C10BDC0464804002048
:4025400008B5084B9868802303401120002B08D1181CFFF7CFFF002803D1034B1870FFF7DFFF08BD48040020E8020020704700008023074ADB051A600138064A0002106057
:402580001A68002AFCDB8023034ADB051A607047410000400403004041FF0080034A013813681B0B1B0318431060704700020C4037B50024074D2B680193AB7D9C4207D290
:4025C0001C206043019B0134181800F033FBF4E737BDC046C454000001238B40191C02030139121A06238A4205D3F933584388428941FA3B0B40D8B270470000F8B52D4B53
:402600004001181843680D1CDF7A0988381C002200F0B6F9041C952F08D91E2808D91F2101F092F90426002923D003E0452F09D90E2C09D9201C0F2101F086F903260029E5
:4026400017D003E01D2F09D9062C09D9201C072101F07AF9022600290BD003E0092F23D9022C21D9201C032101F06EF9012600291AD1731EDBB20024032B11D80E4AD05C4B
:40268000A0420DD06423391C584301F0D7F8092802D801344000FAE70A38431E9841241A240134432C73F8BD2988381CFFF794FF061CDEE7C454000000550000FA23F0B575
:4026C0008BB003AC9B002380344B5527638096235B01A3800026324BE773197E314801F0ADF8314B314A5E701168314B80B20B40A08113602F4B30495D680C232B8001F0AB
:402700009DF8391CE872301C00F030FB2F1C2B1C0A370B33201C01936361276100F0A2FF264B214A984200D90636A3891D498B4204D8EB7A012B09D8022306E020498B4277
:4027400004D8EB7A072B01D80823EB7201235370DB18A373019BA06027616361EB890020E3802B1C291C1033A361FFF747FF5521002000F0FBFA0643201C00F0A7FF291CCC
:4027800028800020FFF73AFF287B002803D1552100F0ECFA0643301C0BB0F0BDE507000048040020C05D0000E802002000020C40FFFFF8FDC4540000DC050000870D0100EC
:4027C00080BB000008B5034B00205968FFF716FF08BDC046C454000008B5FFF7F3FF00F003F8002008BD000070B5FFF7E1FE00230F20324A32491360324A334E1360334AAC
:402800001360334A1360334A1360334A1360334A1360334A13600B6032490B6883430938034380200B60304940010B6803430B6080212E4B490019602D492E480B68034365
:402840000B6080232C495B040B602C482C49086013602C4A2C4B1A602C4A2D4B1A60C1222C4B52041A60307EFFF782FE70232A4C317E256829489D4300F0E0FF284A231C14
:40288000904201D8202200E0302215431D601B68244A48201343244A136000F099FD0F22224B1A600022224B1A60224B0A321A60C022214B12031A6070BDC046F4000C407A
:4028C00080010C40B4020C4048040020C0020C4020030C4084010C4088020C4080020C4084020C400005024094020C40A0020C40A8020C4001000010A4020C404112000076
:4029000088010C400000030190020C4000008301C0010C40C4010C407801002000366E01001BB7000010008000000C4000030C40F0010C4010030C4004020C4038B5041C08
:4029400000F04FFD7F210A4A0A4D12782B68A418A47A8B432343084C2B6023688B43074909688A18527A1343236000F03EFD38BD04550000C0010C40C4010C408804002022
:4029800070B5051C01208840161C013810290DD1104B6C1C6408041B197E0F4800F04EFF0E4B021CE01E9A4200D8A01E002D02D0291C00F043FF0A4B1B78012B08D1054B33
:4029C000053E1B7E012E03D85D43A02D00D8800870BDC0464804002000366E01001BB700E902002008B50D4B0D4A1B785B01D3185B68D87A1B7B5A1F1B04012A02D88022D3
:402A000092041343074A1278012A04D101381843054B186001E0FFF7C1FD08BDEB020020C4540000E902002000020C4008B5031CC07A19881A7BFFF7A3FF024B80B21860C0
:402A400008BDC04614030C40F0B50125364C87B00E20FEF7BFFB2560182000F0B9FC334B334F9C4600236246324E136032483B6006333360FA33036080233049304A5B045F
:402A80000B6015602F4B0635FF351D602E4B033DFF3D1D602D4B013D1D600194141CDE3502970396274B284E284FFF35049005911A68520703D4002D03D0013DF8E7002D68
:402AC00001D108223A60002562461560029A0E201560832252001A60FEF786FB0E20FEF76FFB039B01221D60049B80211D60059B49041D6050232360154B1A60019B154A1B
:402B00001D6013680B43136002233360E223FF33114A1268520702D0013B002BF8D10F4B3B6007B0F0BDC04680010C40B0020C40B4020C4088020C4080020C4084020C401B
:402B4000F0010C40F0000C40F8000C4040030C408C010C4000020C4000000C400103000008B5044A044B91680B439360FFF76CFF08BDC0464804002080000100F8B5041C18
:402B8000077E857E00F02DFC0F22BA40266807213368A94093430422BA406468134322688A432260336000F020FCF8BD70B5134E134C3378134D5B01E318586800232B7005
:402BC000327829780A334B435201A2189268D3180D4A1360FFF7B2FE1C23327828785201584313591818094B1860FFF7C7FF084800F0C0F9FFF7B4FF70BDC046EB020020E0
:402C0000C4540000EA020020880400208C040020A535000008B51C235943044B4201D058034B40181860FFF7A9FF08BDC45400008C0400200F2238B50168857E041C007E77
:402C40000B68824093430B6000F0CBFB0722AA4061680B6893430622AA4013430B6000F0C4FB0122607EA16882400B6893430B6038BD000010B5054C2378012B05D1044B0A
:402C80001868FFF7D7FF0023237010BDEC0200208C04002070B5041C0D4E4301F3185D68FFF7E8FF0B4BE4B21C701A7852019159094A116019787F23084A90689843031C74
:402CC000281C0B439360FFF7B1FEFFF78BFE70BDC4540000EB0200208C04002048040020114A38B54301D2180A23104CC9B22170217855684B439268D3180D4A1360FFF729
:402D0000C9FF281CFFF71AFE1C232078094A5843136818181060FFF731FF0122064B07481A7000F027F938BDC4540000EA020020880400208C040020EC02002079350000E5
:402D40007F23074907480A681A4002430A60064A11680B40802109040B4313607047C046C0010C4000008301C4010C40F0B50125694A4301D3185C682B1C87B0029020888C
:402D800005918340181C01384843642100F056FD6B461A7A614B009061481A7000F0EAF80023604A019513700393029B5A485D4A5B01C31811785D7E061CA9427BD24025B8
:402DC0005649A5720B7807265B01C318087811785B68C0B2C9B20493FFF782FFFFF7B0FFFFF7BEFE504B514A127A52B2002A02DA013B002BF7D14E4B1B681F88009B9F42DE
:402E000002D2A37AAB43A372A37A6D082B43A3720498013EFFF792FD002EE1D13F4B1A78404B520118781C2358433B4BD3581818404B1860FFF7FEFE3F4B404A1E701368F2
:402E40003F490A200B4313603E4A3F4B64211A60C1223E4B52041A60049B1D880123AB401D1C013D684300F0E9FC009B0130834203D31A1A0623974208D3009BC018A84273
:402E800000D9281C0623B842BF413B406946A27A01980979904200D2111CC9B20191244909684A72039A1A4303921E4A13780133DBB2137079E7019B01335B08A372002368
:402EC00013701B4B1F68174B1A78AA421DD21F78029BA07A5A010A235F43B2189368DF197B7A834209D3181A059BC0B258436421633000F0A3FC787201E000237B72094A14
:402F000013780133DBB21370DDE7094A0398176000221A7007B0F0BDC4540000EB02002079350000EA0200203433000048040020880400208C040020EC020020A8020C4077
:402F40000100001000008301C0010C40C4010C4010B5041C00F045FA0449054A0B68A405134023430B6000F040FA10BD0CE400E0FFFF3FFF10B58024054BE4011C60054B41
:402F800098670320FFF7E4FF034B1C6010BDC04680E100E00000002000E100E008B5094B021C5943002805DA43429BB25B085B429BB201E083B25B081BB2C818111C00F023
:402FC000CDFC08BD1027000070B500251C4BE91849108AB21B4C002904D089006158884203D100E00A1C131C08E0814202D9013295B201E0531E9BB29D42E8D39A00A2587F
:4030000082420BD910498B4208D85E1CB1006158151A411A8D4201D9B3B20BE0824209D2002B07D05D1EA9006158091A801A814200D2ABB20A204343044A981800B270BDC1
:4030400072060000085500007106000060F0FFFF8021044A090613680B431360F022024B1A60704700023F4008023F400121024A13680B431360704708023F4008B5054BEB
:403080001A78002A03D101321A70FFF7E1FFFFF7EDFF08BDED02002003238021054A09061360054A11600421044A1160044A13607047C046F0020020000031400800314081
:4030C000140F3140044A054B11681B680B43802109010B431360704708003140F002002010B5054C2379002B03D1FFF7D5FF01232371FFF7E7FF10BDF002002038B5041CAB
:403100000021808E00F054F90021254BA2681B68DB0F1B051343234A1360E268224B1A60A269224B1A60E269214B1A602269214B1A606269204B1A60204A214B1160196090
:40314000A16A11600121626A1A601E4B19601E4BA5681A68181CB0231D4203D11B4B13400B4303E080238A439B051343002103606368994213D22368CA18154B9200D05871
:40318000144B0340144812581343D20101D5134A134013488A00121813600131E8E738BD80033A4000003A4004003A4018003A401C003A4010003A4014003A4028023A40A7
:4031C00038023A4018023A4030003A40FFFFFFDFD46E000000370080DC6E0000FFFEFFFF80003A40064B1A68520304D580211A6849020A4301E00122024B1A607047C04685
:4032000004003A4024003A40431E30B5051C0020012B0ED807490122074C23681340181E05D1AB0705D501390029F4D101E0101C226030BDFFFFFF0310023A40084B1A6898
:4032400038235343074AD3185A680023824204D9054B8000C01803689BB218B27047C046F8020020E46E000080013A40F7B5324B1D7901932C1E5DD1304BA200D058304EBF
:40328000830508D538236B43F318DB688022DB0704D4520003E08022520100E0D2002949C30511D438236B43F318D86840070BD5E0209B6800010340834205D153085B42A6
:4032C0009BB260000B5202E000206300C85238236B431D48F7185043F96A00934018490000F03CFB194AA30000B29850009BF2587B68D318013B1B1B594259416D18012CCB
:4033000001D00124B8E70F200321FDF741FF0F200F49FDF735FF019B5B79002B0AD1019B5C71074C201CFFF7E9FE236A0093009A084B1A60F7BDC046F8020020D46E0000DA
:40334000E46E0000980400201027000090040020A533000020003A4008B5084B1A68002A0BDB074A1268002AFBDB80211A6809060A431A600A20FEF717F808BD00003A400F
:40338000A0023A4038B50125054C23792B4204D1FFF76CFF23792B432371FFF7DDFF38BDF8020020014B1A681A60704710023A40FF22072330B5054CC9002568000211401A
:4033C0002B4001431943216030BDC046080300400230800803D001300238FCD1C046C0467047EFF3108072B6704780F31088704710B5041CFFF7F5FF102C04D803210C4A07
:4034000013688B430FE0202C05D80321084A13688B43023906E0302C06D80321044A13688B4301390B431360FFF7DFFF10BDC0463000104008B5FFF7D4FF0421034A1368C1
:403440008B43136030BFFFF7D0FF08BD10ED00E008B5264B1B68002B00D09847244B1B685B071CD523490B685A1C803B581E83415B421A40204B1868204B1B68824203D133
:4034800020221F4B1A7003E01E48DBB283540A601D4B1B68DB06E5D104221C4B1A601C4B1B689B0721D51B4B1B491A680B689A4213D00B685A1C7F3B581E83415B421A4062
:4034C000164B17489B5CDBB20360164B0A601A681F231340082BE6D104E00221124A13688B4313600222114B1A6008BDB0020020CC0F08401804002010030020400308408C
:40350000150400209403002008030840C00F08408C0F08400C03002008030020140300204002084008020840880F0840800F08400C4B0D491B780D4A5B01CB185B68126818
:40354000198801238B400A4892B2013B094900689A4203D20B785B001A5202E00A78520013527047EB020020C4540000D0000C408804002004550000832208B5064B520017
:403580001A60FFF7D5FF054BDA8899680132DA80034A0A409A6008BDF0000C40480400207FFFFEFFF8B51C23254D264C2A78264E277852015F4393598322DF19234B52004B
:4035C0001A60FFF7B5FF381CFFF734FB2B785B01F31858682B7822785B01F3189B7D013B934218D923780133DBB223700A232A78217852014B43B2189268D318144A1360EE
:40360000FFF79CF928782178C0B2C9B2FFF702FBFFF71AFA13E0002323700E4B0E4A98680E49127801409960012A02D1FEF79EFF05E00B4A02409A60DA880132DA80F8BDBD
:40364000EB020020EA020020C4540000F0000C408804002048040020E8020020FFFFFEFF7FFFFEFF70B5041CFA26036980881D78E37BB60058431349704300F0DFF875439A
:403680006188684300F0DAF8051C2088311C684300F0D4F8A3890C49584300F0CFF8013063691022082809D80822042806D80422022803D801D1187001E001221A70281C99
:4036C00070BDC046F049020000E1F50538B5041C63698089197800F0B1F8051C60880304181A23691978A388594300F0A7F8A37B1149DD40684300F0A1F8E3880A215843C6
:4037000000F09CF800230D4AA16810258A425B410222D31A62325343984203D9013DEDB24008F9E74B236421584300F087F8A4692080281C38BDC046A0860100A7610000D7
:4037400010B50024A34200D00C880088131C800080B2824200D2031C9AB2A24200D2231C9AB20B805308FF2B01D9FF2300E0DBB28B70CB70D308FF2B00D9FF230B7110BD74
:403780008B0813800F2393720023C90851809080D0801081D3727047937A30B594885B00041B9080DBB2002C01DB937202E00133937264420F23957A1D40538895729C42A9
:4037C00003D2012B03D9013B00E0013353800F2D05D0002D03D053889D00AC4204D90023D0801081D3721DE0D488844201D9D08003E01489844200D21081D07A092802D8E5
:403800000130D0720EE01089D488001B80B2834204D989088B4203D9013B00E0013353805388138030BD000002B4714649084900095C49008E4402BC7047C046002243081C
:403840008B4274D303098B425FD3030A8B4244D3030B8B4228D3030C8B420DD3FF22090212BA030C8B4202D31212090265D0030B8B4219D300E0090AC30B8B4201D3CB03A2
:40388000C01A5241830B8B4201D38B03C01A5241430B8B4201D34B03C01A5241030B8B4201D30B03C01A5241C30A8B4201D3CB02C01A5241830A8B4201D38B02C01A5241CD
:4038C000430A8B4201D34B02C01A5241030A8B4201D30B02C01A5241CDD2C3098B4201D3CB01C01A524183098B4201D38B01C01A524143098B4201D34B01C01A52410309DB
:403900008B4201D30B01C01A5241C3088B4201D3CB00C01A524183088B4201D38B00C01A524143088B4201D34B00C01A5241411A00D20146524110467047FFE701B5002031
:4039400000F0FCF802BDC0460029F7D003B5FFF775FF0EBC4243891A1847C04603460B437FD4002243088B4274D303098B425FD3030A8B4244D3030B8B4228D3030C8B421C
:403980000DD3FF22090212BA030C8B4202D31212090265D0030B8B4219D300E0090AC30B8B4201D3CB03C01A5241830B8B4201D38B03C01A5241430B8B4201D34B03C01A75
:4039C0005241030B8B4201D30B03C01A5241C30A8B4201D3CB02C01A5241830A8B4201D38B02C01A5241430A8B4201D34B02C01A5241030A8B4201D30B02C01A5241CDD2CB
:403A0000C3098B4201D3CB01C01A524183098B4201D38B01C01A524143098B4201D34B01C01A524103098B4201D30B01C01A5241C3088B4201D3CB00C01A524183088B42F2
:403A400001D38B00C01A524143088B4201D34B00C01A5241411A00D201465241104670475DE0CA0F00D04942031000D34042534000229C4603098B422DD3030A8B4212D3BA
:403A8000FC22890112BA030A8B420CD3890192118B4208D3890192118B4204D389013AD0921100E08909C3098B4201D3CB01C01A524183098B4201D38B01C01A5241430972
:403AC0008B4201D34B01C01A524103098B4201D30B01C01A5241C3088B4201D3CB00C01A524183088B4201D38B00C01A5241D9D243088B4201D34B00C01A5241411A00D202
:403B00000146634652415B10104601D34042002B00D54942704763465B1000D3404201B5002000F00BF802BD0029F8D003B5FFF715FF0EBC4243891A1847C0467047C046F1
:403B4000002B11D1002A0FD1002900D1002802D00021C943081C07B4024802A14018029003BDC046D9FFFFFF03B4684601B5029800F04CF8019B9E4602B00CBC7047C0461B
:403B8000F0B54F46464605042D0C2C1CC0B41704160C3F0C9946030C7C4375435F4373437D19260CAD199C46AF4203D980235B029846C4444B465143434324042E0C240C9C
:403BC0002D0466442C1959188919201C0CBC90469946F0BDF0B583B0161C1F1C0090019100F04CF8041C0D1C221C2B1C301C391CFFF7C6FF009A019B121A8B410899201C5C
:403C00000A604B60291C03B0F0BDC046F0B5141C83B01D1C0090019100F028F9221C2B1C061C0F1CFFF7ACFF009A019B121A8B410899301C0A604B60391C03B0F0BDC046F2
:403C40001C2101231B04984201D3000C10391B0A984201D3000A08391B09984201D30009043902A2105C40187047C04604030202010101010000000000000000F0B5444628
:403C80005F4656464D46F0B41C1C85B0002900DAA9E00F1C0021061C8846101C191C002C00DA97E0341C3D1C82468946B94273D870D04946504600F085F98346391C301CB6
:403CC00000F080F95B46181A031C8346203B9C4600D59CE00023002251460092019363469940019151468140019B0091BB4200D983E000D17EE0009A019B341C3D1CA41A72
:403D00009D416346002B00DA9AE0002600270296039701369E400396012686400296002800D171E00099019AD30799464B464E081E435708002301220CE0AF4201D1A64210
:403D40000AD8A41BBD4124196D410138A4185D41002806D0AF42F0D9013824196D410028F8D12022029E039F5B46524236196F4199185AD4281CC8402C1C5B46DC40002948
:403D800068DB041C8C40231C59468840021CB61A9F4103E0B0428CD90026002741464B1E9941002300910193009A019B002554429D41331C6340181C3B1C6B40191C009B00
:403DC000019CC018614105B03CBC90469946A246AB46F0BD4346DB430C1C9846131C00215842A1415EE7002746428F4101214942884652E7B14200D87DE7002600270296BF
:403E00000397002800D08DE7029E039FC6E720215346091ACB400022191C0023009201934B4683400B4301935CE75A4620239B1A2A1C9A40201C131C5A46D04018439BE7BC
:403E400020260027331A0026029603970127DF40039761E75B4620215D46C91A031CAC40CB40191C231C0B438EE7C046F0B545464E465746E0B4041C82B00D1C9146984627
:403E80008B4262D85FD04146484600F09BF8291C061C201C00F096F82023311A5B428A46C81865D44B4683401F1C4B468B401E1CAF4258D855D0A41BBD41002800DA77E07E
:403EC000002200230092019301328240019201238B40009300293CD0FB079846404672087B080243012600270CE0AB4201D1A2420AD8A41A9D4124196D410139A4197D4175
:403F0000002906D0AB42F0D9013924196D410029F8D120220098019953465242001969419E183AD42F1CF7405346DD40002E29DB3C1CB440231C5446A7403A1C801A99414D
:403F40000090019105E082429DD900230024009301940098019902B01CBC90469946A246F0BDA342A7D90022002300920193B1E720224B46521AD3401A1C43468B401F1C0C
:403F8000174392E7534620245646E41A3B1CB540E3401C1C2B1C2343CDE7524620239B1A2A1C9A40271C131C5246D7401F43BBE720230022581A0023009201930132C24085
:403FC000019284E710B5002903D1FFF739FE203002E0081CFFF734FE10BDC046014B18687047C046DC0100200E4B70B500251E1C0D4CE41AA410A54204D0AB00F358984785
:404000000135F8E702F08CFF084B00251E1C084CE41AA410A54204D0AB00F35898470135F8E770BD2C6F00002C6F00002C6F0000346F0000002310B5934203D0CC5CC45420
:404040000133F9E710BD031C8218934202D019700133FAE7704700000000000020FCFF7F0100000000000043757272656E742074696D652069732025643A00256400204194
:404080004D0020504D000D0A2A2A2A2054616C6B696E6720636C6F636B2056312E30202A2A2A0D0A000D0A52454144590D0A005B445D20446973706C617920646174610D35
:4040C0000A5B545D205361792074696D650D0A5B455D20456469742074696D650D0A5B4D5D205361792074656D70657261747572650D0A0043757272656E742074656D70FE
:40410000657261747572652069732025642E25642064656720430D0A00486F757273205B25645D3A00496E76616C69642076616C75650D0A000D486F757273205B25645D1B
:404140003A2573000D4D696E75746573205B25645D3A257300414D2F504D205B25635D3A000D414D2F504D205B25635D3A2573000D0A285072657373204820666F72206818
:40418000656C70290D0A0052454144590D0A0D0A004D696E75746573205B25645D3A0000002AD432B212251402E1C5025F5A050F26FCA5A5D6DDDCFC252B22210FFFF8EE39
:4041C000EDEFF7F6FA00030201000000640200203C0200200002030405070A0F142029395172A1FF00101112131415161718191A1B1C1D1E1F202122232425262728292ADC
:404200002B2D2F31333536393B3D3F424547494D4F5155575C5F63666A6E73777B80858A8F959AA0C0828083C0834084C08440850086808780888089C08A008C408D008FB5
:40424000C090C092009940A180AB40B840C7C0D8C0EB000040144027C038C0478054C05E0067406D00AE80B480BB40C380CB40D4C0DD80E780F1C0FB00064010401A002472
:40428000402D0036403EC045C04C00538058C05D40624066C069C06C806FC071C07380750077807E929FADBAC8D5E3F0FE0B192634414F5CAEBCCAD8E6F4010F1D2B3947FC
:4042C0005563717EAEBAC5D1DDE8F4FF0B17222E3945515CC0CBD6E1ECF7030E19242F3A45505B66B3BFCBD7E3EFFB07131F2B37434F5A66C0D8F0071F374F66C0D4E8FCB2
:404300001025394DCDDFF10416203B4D30313233343536373839414243444546A00A30AA83C3B26960C94C6DD96E043DC634158511B468CF909D46D8B235D3719A608F8A59
:40434000C838A3F3D34432AC9E29E674B1327AA6ECBC5C22CC194BD034ABC067C85E343D8D9CB178CECA3473C6165832ABF0199B15CC89C267AC92B93A439F2911B35E3361
:404380005326146B2AC272997088ED34CB6DE2CEA63322AD29722EDB6C7CA6AC24342ACC99B23135EFB0670E3AC42B83AC5998F28C363BF2625DC42B8C03020F354024EE75
:4043C000068828CD008D841AA0D35203741CA2808E4305D05184000672134045EE0CC82082001954C0030004009F02D2244C6BE71849A3636B5915384D0966947BC9320DF2
:4044000020E15195DB748518AB3669D3D762C4DA7A8CCFBAB150EBD64DC46A9D0BC6D0A068758F1A7DC3E4D3557AF40D92D754A5D567CE96DB254F9F847AAF873A63566641
:404440003131F18C3E686679E935854CE3EE93C6E82B5584CD1AA36B34EE31734CA6F2B846AD31DA266D1125D7E88B9659165AA32F5EAE35784CAAACBBF2A831CB5D6AEADD
:4044800095DB2CAFAB66542CB338E96C3633CD6CA7AB7BED34D159A66EB5C3C446987AD475154B19AA1E074A5098AB9B3B7E291B8AC5C71332008C2A02801D9166DE32C3FE
:4044C000AD549964AC88D24263F4DE33C3869E313AAB0C1F7CC66AD5237CF019AB51F3ACC067AE4AC5A24BB5516B9D0A673226A3A52B4B4E1985B68D0A2969C421A6DDACDD
:40450000A41187DC3237132698BBCA3C3000800112635680121CA50C5CE2DA04953633F26D0F9396CCD1BB420CC00300C0802685150073E46993B21AF6D0A78F3AA2CD436C
:404540009F214BF7512B7C86ACCC5BBCCC199353CF944A674C81A35D279D3145F10AAD74C618D5A7B4D21963E4DC924A638C09735C478D2904F62EAFDDD6E85533AB563A39
:404580009C8FCA28CB10A6A0232BDCD20390A6CCDDC2DCF199661E63E5C5ABEB56502D4BAF32318E6B373CA6C4D8B73D880180CF1500D03E0F04C01F25B56A6512F5E83207
:4045C000EA17C65AA3D3A05EA8D80C2ABD3EA5A279A8F4FAA68AF4A0D6EB9B22D6835A6FAEABFA0C1ABD39E6E2536A0C76BBAB578531DAABE65191C660B7A65B951C835D16
:4046000052AE5569F56E499446E5D5BB25516A9547EFA664898D2EBD9E92255225F52173B5886D8007C080A82915408AEDE9B2C38E99C0A30F9A7B3A029F3E1AAAED0CBC0A
:40464000C66C30A6B3D09AAA2355EF46ABEDC994D99B8EA27B15F66C3A9A515D852DC918BA3766F5240A8882550141B229204B32032489E1B2AAD83B3DF6034080C84C1968
:4046800010989900AA345340172E0A68DC540155391B201BD5D32745393DA44F5F24E9F5986E5D45AABD19A47495634EB96D573BE9D5E1960140012ABA1B20BB100714558F
:4046C0006280249C0C50698A011A763140E52E0EC8CCD9008985C203000460368B015658082063130154E1AA80CADC15D071A803508D3C43709E914DF5F4D17B4416D9330A
:404700004417113142D7E05D46781A19A376196151798CD6869B65ED317A97A61E53D6E8BD87769A1963B092D465B90DDCFA7886A5314A6DE319B2DBA8B44EB6296EA3D2E5
:4047400032D961BB8DC25857A7ED365A251D138ECA288C55743976B551925969DBE4526746441C7870866AC87D26D4E9B3E4CC4D41A7CF9AA22E0D9D3E72F5B9107CBAC8B8
:40478000257623F0EA1251EF2F43ABCB48BDBE0D952E03CBBA14EC7AA5AB3BCC96E994AA2A8FC4A67322723C12AB2E708B0EB70B2A0FC272C26DC13287E5B089C80208520A
:4047C0009B0124478790F649524B635CE2BADC54363CAA80B17B50A5B801B61C67A7130658738C8D491AA8F3B530466B0AD152C2E99C31054FB1947A861432D9CACC1953EE
:40480000A8244F2B674CA94C3CCD9C31B94CD53072A6EC3CD532C8998A53372F23672C8AD3238C9CB169B2C80A72C62AC9233B741BB9F56E73336550462723C58CBE4872DB
:40484000A988949A64D8A5DA68189313134F2AF00004009F4035F83569866DD5B16F981DB652AB77AB44146CBD9FA19A1D78F4A1B54866E133C432215185CF90FCA45A8D8D
:404880003E634C9DEA13E48C29566A54903326674565A6C7688DB685396EA371923669B98DC6F06486ED324A2B131DB6CA600D954FD63863E6129A51B98DC64B64B9953237
:4048C0007AABA69976E0012B1CCE83C5BAB45CBA88CC885D3A34C6D3B474E9E02D738BD0A947A3C53A46A61EED16AF18917AB45A2D6360E9E11ED1F692A947A7D8C64BA51B
:404900001E9D14AB289D7A7C52ACBD54EAF109F18A516120ABD8C622858EA4364BABEC7A9E5C54BC8969952D35F558000F00000600334A01A07B2B004CEDD55AA7556DA5BF
:404940004E1B34D776845A5DD2E83F19F874990BCF67A8D527A632DFA6569F907B7F995E7D42EEF32578F58998CD97E9D567A45E5FA64E57A8487D245E4343A2F165A89511
:40498000095AF43BD93645E4392B5252D734615E9801780000028842BC254945044995D3C73061E2A34F9F42A551963963D693CE51FA8C4575B878E933159D51E265CE54A5
:4049C0008D796A963E63D16E1555F88CC589769599335627DC5DA1CE58B468D5183E6391AADD1D788D45B37455E031564FA2DEB50CA0B4A50280F306007865495A2B6B43D8
:404A0000B6266A6EEDA0BCBA68B5B582F2E993D3F22C3167C856CAB3449FB15829AD227DC6623834DAF498A5B54E0FB96DD24AD63A68B7496919EB92D566AB786C52515B46
:404A4000AC92B14D8569A1DE362665AFB505754EAF54A61CC5694C51C85310E73639F0A649927AB20CA7BA7B34CF0B95BAA2D0BA3A60EBB3A298EA42638A86733B0DAF25E1
:404A800028EF0D8DB2D620A62AA8D65A92B069B6266371BE86B967ADC5EBEE449B7DE6A8BA8B6CF25992CE76EED2678A262BBCC39C2178CFF412A300D0D214007245292348
:404AC000CB28B7B0638C4AA3C2ADAE21686F958E7286E8CA54B6E8E87D08361F23A5E3D65BA35C958EEB188974947AAE6C7CD451EAA9F18E72C7A91752C6265CA78E2B6DB1
:404B00009F70943AA6B5B2D376E8A8D1CE0A5BA1E35233B26CBB564A718BB203000F0004001F9400F8A38FC957B7481FB2C6902CDC33C89992B756ABD0670A29C3A3829C71
:404B4000299B2CE7187DA6A4BB926CCC9992DE34D6DB678A7A2AC06EAF31A80B65BD39A6202E9DE5E6989CDD308A4B638A62D2D12E95D1EA4EC59C3CC6CCC2CC3CCC2887B7
:404B80000873D72A0E48DCCC009199182050550544A6DCC6154A43384AC9A77731D7A80C485CE401A35C4199B42AB726128DD91232DA4434FACBF0E813B2E84F21ABCF4875
:404BC000BDBE0CADBE4089FA1274FA8CD4EA53D0E90B12CB2FC1A7CF48A2AE049FBE4089FA30BCFA8CC5EAD3D0193296E82BC367C848622E0C8DD191EC6933D30666735A0F
:404C0000D5741BB8F62D73296D14CA362269B7516999EC90D546A16DA24A721B8CD4F1363A65904A2B3A648F364A51A9AC5CDA6858342B721A9263D17429000F0000000094
:404C4000FF0F202630BA933D949AC0EC357027AA01A73B2824AB01CCC99034150661BC2232F6C89DA94C9D2067F07A3D328AAEDEAB2B4D2B34FA602A256A50197CC894AC31
:404C800032F000FF0F25AA56223DE2B4DAFBCAE490B2A6E03A82A2CC99538834AC226B8EA94278C29C29B90EA328739618DA85DBEC99636D159B20674E71CCAC8A9C29F9E4
:404CC00009A32C7CC66CB31CABF41993ED70F1D2678C2EB3D5C39C31ABF6710D728664DC2AD3D0E9B256EDCC20A7CB4A6D32039FA6188AAC12B39AA4A83AC248A8B1F39E03
:404D0000502BA186C1BB32C2A41A7BEF8C8A1B6AECBDCB2B8EABB08BCEACD8A54A422CC29B003CABAA1A2DB3039F2E4BD6EE087C862CD92BCBD0191337EB8E40670AC2A34E
:404D4000B3029F726053CBA874F26F2D58BD710212C84D40059201D8883D000B6B04E060C9005C26E980CBD90CF0059B033E9750C0859C000FD09AD033D433CC6963CD5032
:404D80008BB0AB0B294BC5C3AEC11F33CB30B37A7FDD2CD3CCEAFD74730B33A3773D4D522A8DCE4E734BA9353A3DB442BD72EB4D9553F34AA3D74DD6D56BB65E5E19738D24
:404DC000557A796543CD66EBF5E04DD788AD7395D62242B4CE563EF108D5FA9471B92A646963C495AC50AD2919C6222A8EA62B572A0FFD70DA5833D422CCEA42CD548DB0DC
:404E0000AB0BCB5D2383AEDE5F37CF30B3FA30DDC5D3CCE8DD48D3904AAB733D439D128D4E0FCD30ABD47A53E44C3C56EB759353F39A6D1047C6CD62B55E3E9950B7D57AE7
:404E40003578D32C46E96DA3738F08A5B3954E320395CE673AC934D9BA1871253B546B4A82D1C852000E28CCC5019DB83BA0430F000080074000F03518007E6A5A518E89E2
:404E800008A361C63526DCC4B809975857131B46D863545DF41883A3CA76A16B085C7B8DCD9C210BEA091573862C28BB5CC8181CB7695723AD6726AACA459F3E09F6E83650
:404EC00072FA2CA8B353F0E91397EE10B36B0852AB4AC9B5D14AEB0E279B4AA9B22A4C4AE8858C2AF7D86E542A2BDC2CBBD108CFF2882D00EAC2210D8DAA5A849D076E8029
:404F0000352634C89809E758F32093565462C243485A98D7F14AD261C225D6D5A88611F6181317D306ED79324DEA1A83E4AE30A167C89C6A43459F2173AE4923B2A6CCA97C
:404F40003B5C4819B0CF3537AAA78B522CA78C9CBE08ECA812B4FAC8A53B45EC1A82D0AA527263B4D2ABC3C8A6899BEC0A93127A21232B22B61BA48E0A77DB6E34C2AA3C20
:404F8000E23000FA0806C01091864AD4C32C7639264F114FCB63DC2AC2CC221AA0C2500374E06E800E3D1CD088BB031A751FD13417E211A7E5C3AC51549C926E5EC162B5BE
:404FC000E001298F81DB4749B72A386D6F263AAA1078A288EAA883A7CE56B2A3564E3B5AC48C466B5B2F15DC1A6E6BCB494A6BA89F4D2739AD61BEB783A58C561ADF2A151C
:40500000BD1A6B6CB25CF06A82E18E76A2AB8D96CBDA059F363A4E6F1372BA9CB06254EC6953C2CC32A9A375913A5AE4A40665EB4C379D1AD0AD3B4D726A40B5EE7653A930
:40504000015DA73224951647EBE8349D3A9CB5B2DD4A6964A588B024A931952C4213BB8A45B63477630AED453CC28A298D537175C7A264C6D5CD938892FAF4F2B4A44AE2D6
:40508000DACAD3962AA12B2F0F4704003F041E90DAC079BA3C5469249BAD10C1AD33A4B64BC9B44ED3DE4A21DDFA087CAB954CE903889B54D1A5F328AED308B756B29A69DE
:4050C000133C1AC56A6654F4680C8B9D36C1ABF1D477C6058D46A8DA6D11B25AA563BA5DC8EA82D2EE8DC0AB0B4AAB2602AD3E58A99C3472BA64A562DBC8EA82B58E0EA1BF
:40510000AB8B4E2D3A8DB4DE5B0DED0A9A3A1ABDA2DC70EAA8F78E4AC3A963DE3AB284A49E7BA9AA301D7A61B9B23374EA8CE1B269CBA9D396CBB66C87565AA9980AE33ACA
:40514000EA35B3CA4AE88CA7A808BBA10B11DDCB9DB826159470756CBA98C54205B66963620D55326608D1349425AB2E64F71026A30A1CC3C3520A3C214BA2A2ADC29622BF
:40518000586DAD02B3FA60BD2352E8EA9251CF2CA1A3B3CE22D3A9A60AF99888B4926A1C7C223C76A8918F0D2F3BAE82A9AA22220300B4D3A5888C883DBAD870A5BCD26A97
:4051C0005285D1F24AAB8D0957C7A2B4CE79DE1C3233FAA8A9AB2D74E9A3C4C972CAADEF9C34C36B956E30961A4B02000E18822C01AB8514601693022449EC00D8B51CC0D4
:405200002BCF9A62A1F6B449A38F1137C26AB52914EA72AD34C694B1DCAC669B728536F5D8654A05335D6B124024EA072EF1D6A63DA48854C52E078D6532BE53996364A8DC
:40524000F50D11EBC26DB037946D0BB7C1EE12F51E3C06DB5BD5F2F0986C73F7A8A26B3225222DCA9CD9DBF46A2D7C9660D5BB6DF09992E29CF240630E9C6B2622A719B676
:40528000EC0AB79266987332D2749A89F7CD2ADB614229BAA323BB91599FF48C6D26AD2DC23296E9A2D2C888C4AA702AB2CC138B2208CD748F6D80A4A415D0831801AC9115
:4052C000746BD06C19154A9481AB95666C78C00A70A712D9B298C1990C724B6A04B3CBD92DAB11DCF160975286C0B5CBD5CAE803D3DE32C3A3F7D4A6C6898EC1639F1E15A2
:40530000D3468F7DA6434C4AB9EEEED4386160B6BBDC63810154602D49CAC6E659A715C2956559ED31A864A51D09D71082B876365A7D30DC399EF0F425905955E3D3674D3E
:405340003613254E5F04735E943A43A6627D11EA0C8989F796A13544A63E1F86CF9098585F843943C29ABD19F88C1589E5552007401D15004F2212509178002A1073C00040
:4053800062015858CC019B8A3BE03009030CE8668009D50530B1EA03C00024271800499B00120C5640C16106683C550193A42A60D274037494AE0021C7CF5C54B86B955EEC
:4053C0006B8C11A613FA6CD1B7077791B38650699CB5D6E4629758543EB3F3D51459792C26656376E431AB908D5591C614499599375C53C2E5EED178CD05875966E2354CCB
:40540000D9CE22494EBBB03BBB25718006130EE8D06D14833B8BDBEC3356A1145383CF5895B0F78C5E53E46A3315E42C49AAF479A833272DDA9D85CE1C9DEA741469755415
:40544000615939480128941A2018670308112A8004C3043080BB00067257C04612025848530013490860000B015490CE80082608E0C8063CEEDBC9B9AA9B8E82766B60564A
:405480004D443B332C241D17100A040000001F003B005A0078009700B500D400F300110130014E011F1C1F1E1F1E1F1F1E1F1E1F0C00640028280F031E6420040000C800CD
:4054C0000000C800E4540000620400207604002000000000E20200200100010006010000D60200200000024008000440000004400400044000F00000080000000C0309005D
:405500000103070F0000000034660600C75A0600704F06002F44060004390600EF2D0600F022060006180600310D060072020600C7F7050031ED0500AFE2050042D8050052
:40554000E9CD0500A4C3050073B9050056AF05004CA50500559B050072910500A2870500E57D05003B740500A36A05001E610500AB5705004A4E0500FB440500BE3B050011
:40558000933205007A290500722005007B170500950E0500C1050500FDFC04004AF40400A7EB040016E3040094DA040023D20400C1C9040070C104002FB90400FDB004003B
:4055C000DBA80400C8A00400C4980400D0900400EB880400158104004E79040095710400EB6904004F620400C25A040043530400D24B0400704404001B3D0400D435040005
:405600009A2E04006F27040050200400401904003C120400450B04005C0404007FFD0300B0F60300EDEF030037E903008DE20300F0DB03005FD50300DACE030062C80300B0
:40564000F5C1030095BB030040B50300F7AE0300BAA8030089A20300639C03004896030039900300358A03003C8403004E7E03006B78030093720300C66C03000367030058
:405680004B6103009E5B0300FB55030062500300D44A030050450300D63F0300663A030001350300A52F0300532A03000A250300CC1F0300971A03006B1503004910030080
:4056C000300B0300210603001B0103001EFC02002AF702003FF202005DED020084E80200B4E30200EDDE02002EDA020078D50200CAD0020025CC020088C70200F4C20200A0
:4057000068BE0200E4B9020069B50200F5B0020089AC020026A80200CAA30200779F02002B9B0200E6960200AA920200758E0200478A02002186020003820200EC7D020056
:40574000DC790200D4750200D2710200D86D0200E5690200FA65020015620200375E0200605A02008F560200C6520200034F0200474B020092470200E34302003B40020015
:405780009A3C0200FE38020069350200DB310200532E0200D12A020055270200DF23020070200200071D0200A319020046160200EE1202009D0F0200510C02000B09020030
:4057C000CB050200900202005BFF01002CFC010003F90100DFF50100C0F20100A7EF010093EC010085E901007CE6010079E301007AE0010081DD01008DDA01009ED701005C
:40580000B5D40100D0D10100F0CE010016CC010040C901006FC60100A4C30100DDC001001ABE01005DBB0100A4B80100F1B5010041B3010097B00100F1AD01004FAB010087
:40584000B2A801001AA6010086A30100F7A001006B9E0100E59B010062990100E49601006B940100F5910100848F0100178D0100AE8A010049880100E88501008C8301007F
:4058800033810100DE7E01008E7C0100417A0100F8770100B47501007373010035710100FC6E0100C66C0100956A0100676801003C66010016640100F2610100D35F0100D4
:4058C000B75D01009F5B01008A590100795701006B550100615301005A510100574F0100574D01005A4B0100614901006B47010078450100894301009D410100B43F010013
:40590000CE3D0100EC3B01000C3A0100303801005736010081340100AE320100DE300100112F0100472D0100802B0100BC290100FB2701003D26010082240100CA220100EC
:4059400014210100621F0100B21D0100051C01005B1A0100B31801000F1701006D150100CD1301003112010097100100000F01006B0D0100D90B0100490A0100BC0801003D
:4059800032070100AA05010025040100A202010022010100A4FF000029FE0000B0FC000039FB0000C5F9000053F80000E4F6000077F500000CF40000A4F200003EF100004C
:4059C000DAEF000078EE000019ED0000BCEB000061EA000008E90000B2E700005DE600000BE50000BBE300006DE2000022E10000D8DF000090DE00004BDD000008DC0000A2
:405A0000C6DA000087D9000049D800000ED70000D5D500009DD4000068D3000034D2000003D10000D3CF0000A6CE00007ACD000050CC000028CB000002CA0000DDC8000053
:405A4000BBC700009AC600007BC500005EC4000042C3000029C2000011C10000FBBF0000E7BE0000D4BD0000C3BC0000B4BB0000A6BA00009AB9000090B8000088B7000008
:405A800081B600007BB5000078B4000076B3000075B2000076B1000079B000007DAF000083AE00008AAD000093AC00009EAB0000AAAA0000B7A90000C6A80000D6A70000F8
:405AC000E8A60000FCA5000011A5000027A400003EA3000058A2000072A100008EA00000AB9F0000CA9E0000EA9D00000B9D00002E9C0000529B0000789A00009F990000F8
:405B0000C7980000F09700001B9700004796000074950000A3940000D393000004930000379200006A9100009F900000D58F00000D8F0000458E00007F8D0000BA8C00009B
:405B4000F68B0000338B0000728A0000B1890000F28800003488000077870000BC86000001860000488500008F840000D8830000228300006D820000B98100000681000023
:405B800054800000A37F0000F37E0000457E0000977D0000EA7C00003F7C0000947B0000EB7A0000427A00009B790000F47800004F780000AA770000067700006476000097
:405BC000C27500002175000082740000E373000045730000A87200000C72000071710000D77000003E700000A56F00000E6F0000776E0000E26D00004D6D0000B96C0000C1
:405C0000266C0000946B0000026B0000726A0000E269000054690000C668000038680000AC67000021670000966600000C66000083650000FB64000073640000ED6300003D
:405C400067630000E26200005D620000DA61000057610000D560000054600000D35F0000545F0000D45E0000565E0000D95D00005C5D0000E05C0000645C0000EA5B000080
:405C8000705B0000F65A00007E5A0000065A00008F59000018590000A25800002D580000B957000045570000D25600005F560000ED5500007C5500000C5500009C540000CC
:405CC0002D540000BE53000050530000E3520000765200000A5200009E51000033510000C950000060500000F64F00008E4F0000264F0000BF4E0000584E0000F24D000051
:405D00008D4D0000284D0000C34C00005F4C0000FC4B0000994B0000374B0000D64A0000754A0000144A0000B449000055490000F6480000984800003A480000DD47000011
:405D40008047000024470000C84600006D46000012460000B84500005E45000005450000AD44000054440000FD430000A64300004F430000F9420000A34200004E420000FA
:405D8000F9410000A541000051410000FE400000AB4000005840000006400000B53F0000643F0000133F0000C33E0000733E0000243E0000D53D0000873D0000393D0000E1
:405DC000EB3C00009E3C0000513C0000053C0000B93B00006E3B0000233B0000D83A00008E3A0000443A0000FB390000B23900006939000021390000D9380000923800008B
:405E00004B38000004380000BE3700007837000033370000EE360000A93600006436000021360000DD3500009A3500005735000014350000D2340000913400004F3400009D
:405E40000E340000CD3300008D3300004D3300000D330000CE3200008F3200005032000012320000D431000097310000593100001C310000E0300000A330000067300000BB
:405E80002C300000F12F0000B62F00007B2F0000402F0000062F0000CD2E0000932E00005A2E0000212E0000E92D0000B12D0000792D0000412D00000A2D0000D32C000062
:405EC0009C2C0000652C00002F2C0000F92B0000C42B00008F2B00005A2B0000252B0000F02A0000BC2A0000882A0000552A0000212A0000EE290000BC2900008929000022
:405F00005729000025290000F3280000C2280000902800005F2800002F280000FE270000CE2700009E2700006F2700003F27000010270000E1260000B2260000842600005D
:405F40005626000028260000FA250000CD2500009F250000722500004625000019250000ED240000C124000095240000692400003E24000013240000E8230000BD23000082
:405F800093230000692300003F23000015230000EB220000C22200009922000070220000472200001E220000F6210000CE210000A62100007E2100005721000030210000E9
:405FC00009210000E2200000BB200000952000006E2000004820000022200000FD1F0000D71F0000B21F00008D1F0000681F0000431F00001E1F0000FA1E0000D61E0000EC
:40600000B21E00008E1E00006B1E0000471E0000241E0000011E0000DE1D0000BB1D0000991D0000761D0000541D0000321D0000101D0000EE1C0000CD1C0000AC1C0000D1
:406040008A1C0000691C0000491C0000281C0000071C0000E71B0000C71B0000A71B0000871B0000671B0000481B0000291B0000091B0000EA1A0000CB1A0000AD1A0000E4
:406080008E1A0000701A0000511A0000331A0000151A0000F7190000DA190000BC1900009F1900008219000065190000481900002B1900000E190000F2180000D51800005B
:4060C000B91800009D18000081180000651800004A1800002E18000013180000F8170000DC170000C1170000A71700008C17000071170000571700003D1700002217000073
:4061000008170000EE160000D5160000BB160000A1160000881600006F160000551600003C160000241600000B160000F2150000D9150000C1150000A9150000911500005F
:40614000781500006115000049150000311500001915000002150000EA140000D3140000BC140000A51400008E14000077140000611400004A140000341400001D1400004C
:4061800007140000F1130000DB130000C5130000AF13000099130000841300006E13000059130000431300002E1300001913000004130000EF120000DA120000C612000069
:4061C000B11200009D1200008812000074120000601200004C120000381200002412000010120000FC110000E9110000D5110000C2110000AE1100009B11000088110000D7
:4062000075110000621100004F1100003C110000291100001711000004110000F2100000E0100000CD100000BB100000A910000097100000851000007310000062100000BD
:40624000501000003E1000002D1000001B1000000A100000F90F0000E80F0000D70F0000C60F0000B50F0000A40F0000930F0000820F0000720F0000610F0000510F000039
:40628000400F0000300F0000200F0000100F0000000F0000F00E0000E00E0000D00E0000C00E0000B10E0000A10E0000910E0000820E0000730E0000630E0000540E00006A
:4062C000450E0000360E0000270E0000180E0000090E0000FA0D0000EB0D0000DC0D0000CE0D0000BF0D0000B10D0000A20D0000940D0000860D0000780D0000690D00006A
:406300005B0D00004D0D00003F0D0000310D0000240D0000160D0000080D0000FA0C0000ED0C0000DF0C0000D20C0000C50C0000B70C0000AA0C00009D0C0000900C000051
:40634000830C0000760C0000690C00005C0C00004F0C0000420C0000350C0000290C00001C0C00000F0C0000030C0000F70B0000EA0B0000DE0B0000D20B0000C50B000031
:40638000B90B0000AD0B0000A10B0000950B0000890B00007D0B0000710B0000660B00005A0B00004E0B0000430B0000370B00002C0B0000200B0000150B0000090B000028
:4063C000FE0A0000F30A0000E80A0000DC0A0000D10A0000C60A0000BB0A0000B00A0000A60A00009B0A0000900A0000850A00007A0A0000700A0000650A00005B0A000046
:40640000500A0000460A00003B0A0000310A0000270A00001C0A0000120A0000080A0000FE090000F4090000EA090000E0090000D6090000CC090000C2090000B80900008D
:40644000AE090000A40900009B09000091090000870900007E090000740900006B09000061090000580900004F090000450900003C090000330900002A0900002109000023
:40648000170900000E09000005090000FC080000F3080000EA080000E2080000D9080000D0080000C7080000BF080000B6080000AD080000A50800009C080000940800000D
:4064C0008B080000830800007A080000720800006908000061080000590800005108000048080000400800003808000030080000280800002008000018080000100800004E
:406500000808000000080000F8070000F1070000E9070000E1070000D9070000D2070000CA070000C2070000BB070000B3070000AC070000A40700009D0700009507000007
:406540008E070000870700007F07000078070000710700006A070000620700005B070000540700004D070000460700003F07000038070000310700002A070000230700002B
:406580001C070000150700000F0700000807000001070000FA060000F4060000ED060000E6060000E0060000D9060000D2060000CC060000C5060000BF060000B8060000D9
:4065C000B2060000AC060000A50600009F06000098060000920600008C060000860600007F06000079060000730600006D06000067060000610600005B060000550600000D
:406600004F06000049060000430600003D06000037060000310600002B060000250600001F0600001A060000140600000E0600000806000003060000FD050000F7050000D2
:40664000F2050000EC050000E7050000E1050000DC050000D6050000D1050000CB050000C6050000C0050000BB050000B6050000B0050000AB050000A6050000A00500003E
:406680009B05000096050000910500008B05000086050000810500007C05000077050000720500006D05000068050000630500005E05000059050000540500004F0500003F
:4066C0004A05000045050000400500003B05000036050000320500002D05000028050000230500001F0500001A05000015050000100500000C0500000705000003050000EC
:40670000FE040000F9040000F5040000F0040000EC040000E7040000E3040000DE040000DA040000D5040000D1040000CD040000C8040000C4040000BF040000BB04000056
:40674000B7040000B3040000AE040000AA040000A6040000A20400009D0400009904000095040000910400008D0400008904000084040000800400007C0400007804000065
:4067800074040000700400006C0400006804000064040000600400005C0400005804000054040000510400004D0400004904000045040000410400003D0400003904000032
:4067C00036040000320400002E0400002A04000027040000230400001F0400001C0400001804000014040000110400000D040000090400000604000002040000FF030000BB
:40680000FB030000F8030000F4030000F1030000ED030000EA030000E6030000E3030000DF030000DC030000D8030000D5030000D2030000CE030000CB030000C703000016
:40684000C4030000C1030000BE030000BA030000B7030000B4030000B0030000AD030000AA030000A7030000A4030000A00300009D0300009A03000097030000940300002C
:40688000910300008D0300008A0300008703000084030000810300007E0300007B0300007803000075030000720300006F0300006C0300006903000066030000630300000F
:4068C000600300005D0300005A0300005703000054030000520300004F0300004C030000490300004603000043030000400300003E0300003B0300003803000035030000C1
:4069000033030000300300002D0300002A0300002803000025030000220300001F0300001D0300001A030000170300001503000012030000100300000D0300000A03000043
:4069400008030000050300000303000000030000FD020000FB020000F8020000F6020000F3020000F1020000EE020000EC020000E9020000E7020000E4020000E2020000A9
:40698000DF020000DD020000DB020000D8020000D6020000D3020000D1020000CF020000CC020000CA020000C8020000C5020000C3020000C1020000BE020000BC020000DE
:4069C000BA020000B7020000B5020000B3020000B1020000AE020000AC020000AA020000A8020000A5020000A3020000A10200009F0200009D0200009A02000098020000EA
:406A0000960200009402000092020000900200008D0200008B02000089020000870200008502000083020000810200007F0200007D0200007B0200007902000076020000D3
:406A40007402000072020000700200006E0200006C0200006A02000068020000660200006402000062020000600200005E0200005D0200005B0200005902000057020000A2
:406A80005502000053020000510200004F0200004D0200004B0200004902000048020000460200004402000042020000400200003E0200003C0200003B020000390200004B
:406AC00037020000350200003302000032020000300200002E0200002C0200002B0200002902000027020000250200002402000022020000200200001E0200001D020000DA
:406B00001B0200001902000018020000160200001402000012020000110200000F0200000D0200000C0200000A02000009020000070200000502000004020000020200004F
:406B400000020000FF010000FD010000FC010000FA010000F8010000F7010000F5010000F4010000F2010000F1010000EF010000EE010000EC010000EA010000E9010000BB
:406B8000E7010000E6010000E4010000E3010000E1010000E0010000DE010000DD010000DB010000DA010000D8010000D7010000D6010000D4010000D3010000D101000003
:406BC000D0010000CE010000CD010000CB010000CA010000C9010000C7010000C6010000C4010000C3010000C2010000C0010000BF010000BE010000BC010000BB01000032
:406C0000B9010000B8010000B7010000B5010000B4010000B3010000B1010000B0010000AF010000AD010000AC010000AB010000AA010000A8010000A7010000A60100004D
:406C4000A4010000A3010000A2010000A10100009F0100009E0100009D0100009C0100009A0100009901000098010000970100009501000094010000930100009201000054
:406C8000900100008F0100008E0100008D0100008C0100008A0100008901000088010000870100008601000085010000830100008201000081010000800100007F0100004C
:406CC0007E0100007D0100007B0100007A0100007901000078010000770100007601000075010000740100007201000071010000700100006F0100006E0100006D01000030
:406D00006C0100006B0100006A0100006901000068010000660100006501000064010000630100006201000061010000600100005F0100005E0100005D0100005C01000006
:406D40005B0100005A010000590100005801000057010000560100005501000054010000530100005201000051010000500100004F0100004E0100004D0100004C010000CB
:406D80004B0100004A01000049010000480100004701000046010000450100004401000043010000420100004101000041010000400100003F0100003E0100003D01000086
:406DC0003C0100003B0100003A01000039010000380100003701000036010000360100003501000034010000330100003201000031010000300100002F0100002E01000032
:406E00002E0100002D0100002C0100002B0100002A0100002901000028010000280100002701000026010000250100002401000023010000230100002201000021010000CE
:406E4000200100001F0100001E0100001E0100001D0100001C0100001B0100001A010000190100001901000018010000170100001601000016010000150100001401000063
:406E800013010000120100001201000011010000100100000F0100000F0100000E0100000D0100000C0100000B0100000B0100000A010000090100000801000008010000EC
:406EC0000701000006010000050100000501000004010000000100000011000007000501050006010000000002000000402E201088000490CA030200020002000002000EA8
:406F000000000000030000000000000000000000B0040000010000001700000043000000F8B5C046F8BC08BC9E46704795020000FD100000F8B5C046F8BC08BC9E4670470F
:406F40006D020000586F0000B000002030010000C0020000000000000000000001000000010000000000E02EC05D00001800000000366E01ED130000ED130000ED1300002E
:406F8000ED130000ED130000ED130000ED130000ED130000010000000404040070010020000100200000030E000334400700000030033440203000003403344000000000E1
:406FC000780334400300000004033440200000A0080334400000001F100334400000009F4403344000A000004803344000000F005403344000A000005803344000100F001E
:407000006C033440F0310000700334403000005F7403344011101100113B022E060E0000020000040000000000000000000000000000000000000000000000000000000023
:40704000000000001C6F0000000000000000000000000000000000000000000000000000000000000000000000000000000000000000000000000000000000000000000085
:40708000000000007C010020000000000000000000000000000000000000000000000000000000000000000000000000000000000000000000000000000000000000000033
:4070C0000000000000000000000000000000000000000000000000000000000000000000000000000000000000000000000000000000000000000000000000000000000090
:40710000000000000000000000000000000000000000000000000000000000000000000000000000000000000000000000000000000000000000000000000000000000004F
:40714000000000000000000000000000000000000000000000000000000000000000000000000000000000000000000000000000000000000000000000000000000000000F
:4071800000000000000000000000000000000000000000000000000000000000000000000000000000000000000000000000000000000000000000000000000000000000CF
:0200000490303A
:02000000D85EC8
:0200000490402A
:200000000000000000000000000000000000000000000000000000000000000000000000E0
:0200000490501A
:0C00000000021C0011AC00011C22EA0AE6
:0200000490600A
:0100000001FE
:00000001FF